{
  "contractName": "Betting",
  "abi": [
    {
      "inputs": [],
      "payable": false,
      "stateMutability": "nonpayable",
      "type": "constructor"
    },
    {
      "constant": true,
      "inputs": [],
      "name": "minimumBet",
      "outputs": [
        {
          "internalType": "uint256",
          "name": "",
          "type": "uint256"
        }
      ],
      "payable": false,
      "stateMutability": "view",
      "type": "function"
    },
    {
      "constant": true,
      "inputs": [],
      "name": "owner",
      "outputs": [
        {
          "internalType": "address",
          "name": "",
          "type": "address"
        }
      ],
      "payable": false,
      "stateMutability": "view",
      "type": "function"
    },
    {
      "constant": true,
      "inputs": [
        {
          "internalType": "address",
          "name": "",
          "type": "address"
        }
      ],
      "name": "playerInfo",
      "outputs": [
        {
          "internalType": "uint256",
          "name": "amountBet",
          "type": "uint256"
        },
        {
          "internalType": "uint16",
          "name": "teamSelected",
          "type": "uint16"
        }
      ],
      "payable": false,
      "stateMutability": "view",
      "type": "function"
    },
    {
      "constant": true,
      "inputs": [
        {
          "internalType": "uint256",
          "name": "",
          "type": "uint256"
        }
      ],
      "name": "players",
      "outputs": [
        {
          "internalType": "address",
          "name": "",
          "type": "address"
        }
      ],
      "payable": false,
      "stateMutability": "view",
      "type": "function"
    },
    {
      "constant": true,
      "inputs": [],
      "name": "totalBetsOne",
      "outputs": [
        {
          "internalType": "uint256",
          "name": "",
          "type": "uint256"
        }
      ],
      "payable": false,
      "stateMutability": "view",
      "type": "function"
    },
    {
      "constant": true,
      "inputs": [],
      "name": "totalBetsTwo",
      "outputs": [
        {
          "internalType": "uint256",
          "name": "",
          "type": "uint256"
        }
      ],
      "payable": false,
      "stateMutability": "view",
      "type": "function"
    },
    {
      "constant": false,
      "inputs": [],
      "name": "kill",
      "outputs": [],
      "payable": false,
      "stateMutability": "nonpayable",
      "type": "function"
    },
    {
      "constant": true,
      "inputs": [
        {
          "internalType": "address",
          "name": "player",
          "type": "address"
        }
      ],
      "name": "checkPlayerExists",
      "outputs": [
        {
          "internalType": "bool",
          "name": "",
          "type": "bool"
        }
      ],
      "payable": false,
      "stateMutability": "view",
      "type": "function"
    },
    {
      "constant": false,
      "inputs": [
        {
          "internalType": "uint8",
          "name": "_teamSelected",
          "type": "uint8"
        }
      ],
      "name": "bet",
      "outputs": [],
      "payable": true,
      "stateMutability": "payable",
      "type": "function"
    },
    {
      "constant": false,
      "inputs": [
        {
          "internalType": "uint16",
          "name": "teamWinner",
          "type": "uint16"
        }
      ],
      "name": "distributePrizes",
      "outputs": [],
      "payable": false,
      "stateMutability": "nonpayable",
      "type": "function"
    },
    {
      "constant": true,
      "inputs": [],
      "name": "AmountOne",
      "outputs": [
        {
          "internalType": "uint256",
          "name": "",
          "type": "uint256"
        }
      ],
      "payable": false,
      "stateMutability": "view",
      "type": "function"
    },
    {
      "constant": true,
      "inputs": [],
      "name": "AmountTwo",
      "outputs": [
        {
          "internalType": "uint256",
          "name": "",
          "type": "uint256"
        }
      ],
      "payable": false,
      "stateMutability": "view",
      "type": "function"
    }
  ],
  "bytecode": "0x608060405234801561001057600080fd5b50336000806101000a81548173ffffffffffffffffffffffffffffffffffffffff021916908373ffffffffffffffffffffffffffffffffffffffff160217905550655af3107a400060018190555061095e8061006d6000396000f3fe6080604052600436106100a75760003560e01c80637904f688116100645780637904f688146102215780638afadeb5146102605780638da5cb5b1461028b578063c38a8afd146102e2578063d0821b0e1461030d578063f71d96cb1461033e576100a7565b80634081d916146100ac57806341c0e1b5146101155780634996d51d1461012c5780634b114691146101575780635bf6b19f146101cb57806365733592146101f6575b600080fd5b3480156100b857600080fd5b506100fb600480360360208110156100cf57600080fd5b81019080803573ffffffffffffffffffffffffffffffffffffffff1690602001909291905050506103b9565b604051808215151515815260200191505060405180910390f35b34801561012157600080fd5b5061012a61045b565b005b34801561013857600080fd5b5061014161045d565b6040518082815260200191505060405180910390f35b34801561016357600080fd5b506101a66004803603602081101561017a57600080fd5b81019080803573ffffffffffffffffffffffffffffffffffffffff169060200190929190505050610467565b604051808381526020018261ffff1661ffff1681526020019250505060405180910390f35b3480156101d757600080fd5b506101e0610499565b6040518082815260200191505060405180910390f35b34801561020257600080fd5b5061020b61049f565b6040518082815260200191505060405180910390f35b34801561022d57600080fd5b5061025e6004803603602081101561024457600080fd5b81019080803561ffff1690602001909291905050506104a9565b005b34801561026c57600080fd5b506102756106e3565b6040518082815260200191505060405180910390f35b34801561029757600080fd5b506102a06106e9565b604051808273ffffffffffffffffffffffffffffffffffffffff1673ffffffffffffffffffffffffffffffffffffffff16815260200191505060405180910390f35b3480156102ee57600080fd5b506102f761070e565b6040518082815260200191505060405180910390f35b61033c6004803603602081101561032357600080fd5b81019080803560ff169060200190929190505050610714565b005b34801561034a57600080fd5b506103776004803603602081101561036157600080fd5b8101908080359060200190929190505050610878565b604051808273ffffffffffffffffffffffffffffffffffffffff1673ffffffffffffffffffffffffffffffffffffffff16815260200191505060405180910390f35b600080600090505b600480549050811015610450578273ffffffffffffffffffffffffffffffffffffffff16600482815481106103f257fe5b9060005260206000200160009054906101000a900473ffffffffffffffffffffffffffffffffffffffff1673ffffffffffffffffffffffffffffffffffffffff161415610443576001915050610456565b80806001019150506103c1565b50600090505b919050565b565b6000600254905090565b60056020528060005260406000206000915090508060000154908060010160009054906101000a900461ffff16905082565b60035481565b6000600354905090565b6104b16108b4565b60008090506000809050600080905060008090505b6004805490508110156105cb576000600482815481106104e257fe5b9060005260206000200160009054906101000a900473ffffffffffffffffffffffffffffffffffffffff1690508661ffff16600560008373ffffffffffffffffffffffffffffffffffffffff1673ffffffffffffffffffffffffffffffffffffffff16815260200190815260200160002060010160009054906101000a900461ffff1661ffff1614156105bd578086866103e8811061057d57fe5b602002019073ffffffffffffffffffffffffffffffffffffffff16908173ffffffffffffffffffffffffffffffffffffffff168152505084806001019550505b5080806001019150506104c6565b5060018561ffff1614156105e857600354915060025490506105f3565b600254915060035490505b60008090505b838110156106b357600073ffffffffffffffffffffffffffffffffffffffff1685826103e8811061062657fe5b602002015173ffffffffffffffffffffffffffffffffffffffff16146106a657600085826103e8811061065557fe5b602002015190506000600560008373ffffffffffffffffffffffffffffffffffffffff1673ffffffffffffffffffffffffffffffffffffffff16815260200190815260200160002060000154905050505b80806001019150506105f9565b5060006004816106c391906108d8565b506000915060009050600060028190555060006003819055505050505050565b60025481565b6000809054906101000a900473ffffffffffffffffffffffffffffffffffffffff1681565b60015481565b61071d336103b9565b1561072757600080fd5b60015434101561073657600080fd5b34600560003373ffffffffffffffffffffffffffffffffffffffff1673ffffffffffffffffffffffffffffffffffffffff168152602001908152602001600020600001819055508060ff16600560003373ffffffffffffffffffffffffffffffffffffffff1673ffffffffffffffffffffffffffffffffffffffff16815260200190815260200160002060010160006101000a81548161ffff021916908361ffff16021790555060043390806001815401808255809150509060018203906000526020600020016000909192909190916101000a81548173ffffffffffffffffffffffffffffffffffffffff021916908373ffffffffffffffffffffffffffffffffffffffff1602179055505060018160ff1614156108645734600260008282540192505081905550610875565b346003600082825401925050819055505b50565b6004818154811061088557fe5b906000526020600020016000915054906101000a900473ffffffffffffffffffffffffffffffffffffffff1681565b60405180617d0001604052806103e890602082028038833980820191505090505090565b8154818355818111156108ff578183600052602060002091820191016108fe9190610904565b5b505050565b61092691905b8082111561092257600081600090555060010161090a565b5090565b9056fea265627a7a723158200e85d4ab6af105979f59ef39272fd1f1ce40b13d4fbb07e9ff79cdc377d1f5db64736f6c63430005100032",
  "source": "pragma solidity ^0.5.1;\n\n\ncontract Betting {\n   address public owner;\n   uint256 public minimumBet;\n   uint256 public totalBetsOne;\n   uint256 public totalBetsTwo;\n   address[] public players;\n   struct Player {\n      uint256 amountBet;\n      uint16 teamSelected;\n    }\n// The address of the player and => the user info\n   mapping(address => Player) public playerInfo;\n//   function() public payable {}\n//   co() public {\n//       owner = msg.sender;\n//       minimumBet =\n//     }\n\n     constructor() public{\n        owner = msg.sender;\n        minimumBet = 100000000000000;\n    }\n\n    function kill() public {\n    //   if(msg.sender == owner) selfdestruct(owner);\n    }\n    function checkPlayerExists(address player) public view returns(bool){\n      for(uint256 i = 0; i < players.length; i++){\n         if(players[i] == player) return true;\n      }\n      return false;\n    }\n\n\n    function bet(uint8 _teamSelected) public payable {\n      //The first require is used to check if the player already exist\n      require(!checkPlayerExists(msg.sender));\n      //The second one is used to see if the value sended by the player is\n      //Higher than the minimum value\n      require(msg.value >= minimumBet);\n\n      //We set the player informations : amount of the bet and selected team\n      playerInfo[msg.sender].amountBet = msg.value;\n      playerInfo[msg.sender].teamSelected = _teamSelected;\n\n      //then we add the address of the player to the players array\n      players.push(msg.sender);\n\n      //at the end, we increment the stakes of the team selected with the player bet\n      if ( _teamSelected == 1){\n          totalBetsOne += msg.value;\n      }\n      else{\n          totalBetsTwo += msg.value;\n      }\n    }\n    // Generates a number between 1 and 10 that will be the winner\n    function distributePrizes(uint16 teamWinner) public {\n      address[1000] memory winners;\n\n      //We have to create a temporary in memory array with fixed size\n      //Let's choose 1000\n      uint256 count = 0; // This is the count for the array of winners\n      uint256 LoserBet = 0; //This will take the value of all losers bet\n      uint256 WinnerBet = 0; //This will take the value of all winners bet\n      //We loop through the player array to check who selected the winner team\n      for(uint256 i = 0; i < players.length; i++){\n         address playerAddress = players[i];\n\n         //If the player selected the winner team\n         //We add his address to the winners array\n         if(playerInfo[playerAddress].teamSelected == teamWinner){\n            winners[count] = playerAddress;\n            count++;\n         }\n      }\n\n      //We define which bet sum is the Loser one and which one is the winner\n      if ( teamWinner == 1){\n         LoserBet = totalBetsTwo;\n         WinnerBet = totalBetsOne;\n      }\n      else{\n          LoserBet = totalBetsOne;\n          WinnerBet = totalBetsTwo;\n      }\n\n\n      //We loop through the array of winners, to give ethers to the winners\n      for(uint256 j = 0; j < count; j++){\n          // Check that the address in this fixed array is not empty\n         if(winners[j] != address(0)){\n            address add = winners[j];\n            uint256 bet = playerInfo[add].amountBet;\n            //Transfer the money to the user\n            /* winners[j].transfer((bet*(10000+(LoserBet*10000/WinnerBet)))/10000 ); */\n         }\n\n      }\n    //   delete playerInfo[playerAddress]; // Delete all the players\n      players.length = 0; // Delete all the players array\n      LoserBet = 0; //reinitialize the bets\n      WinnerBet = 0;\n      totalBetsOne = 0;\n      totalBetsTwo = 0;\n    }\n\n    function AmountOne() public view returns(uint256){\n       return totalBetsOne;\n    }\n\n    function AmountTwo() public view returns(uint256){\n       return totalBetsTwo;\n    }\n}\n",
  "sourcePath": "/Users/yhk/dev/web3/rebase-network/2021Q2-hackathon/projects/justhot/contracts/Betting.sol",
  "compiler": {
    "name": "solc",
    "version": "0.5.16+commit.9c3226ce.Emscripten.clang"
  },
  "schemaVersion": "3.3.4",
  "updatedAt": "2021-05-14T09:30:01.522Z",
  "networkType": "ethereum",
  "devdoc": {
    "methods": {}
  },
  "userdoc": {
    "methods": {}
  }
}