{
  "contractName": "Betting",
  "abi": [
    {
      "constant": true,
      "inputs": [
        {
          "name": "",
          "type": "address"
        }
      ],
      "name": "playerInfo",
      "outputs": [
        {
          "name": "amountBet",
          "type": "uint256"
        },
        {
          "name": "teamSelected",
          "type": "uint16"
        }
      ],
      "payable": false,
      "stateMutability": "view",
      "type": "function"
    },
    {
      "constant": true,
      "inputs": [],
      "name": "totalBetsTwo",
      "outputs": [
        {
          "name": "",
          "type": "uint256"
        }
      ],
      "payable": false,
      "stateMutability": "view",
      "type": "function"
    },
    {
      "constant": true,
      "inputs": [],
      "name": "totalBetsOne",
      "outputs": [
        {
          "name": "",
          "type": "uint256"
        }
      ],
      "payable": false,
      "stateMutability": "view",
      "type": "function"
    },
    {
      "constant": true,
      "inputs": [],
      "name": "owner",
      "outputs": [
        {
          "name": "",
          "type": "address"
        }
      ],
      "payable": false,
      "stateMutability": "view",
      "type": "function"
    },
    {
      "constant": true,
      "inputs": [],
      "name": "minimumBet",
      "outputs": [
        {
          "name": "",
          "type": "uint256"
        }
      ],
      "payable": false,
      "stateMutability": "view",
      "type": "function"
    },
    {
      "constant": true,
      "inputs": [
        {
          "name": "",
          "type": "uint256"
        }
      ],
      "name": "players",
      "outputs": [
        {
          "name": "",
          "type": "address"
        }
      ],
      "payable": false,
      "stateMutability": "view",
      "type": "function"
    },
    {
      "inputs": [],
      "payable": false,
      "stateMutability": "nonpayable",
      "type": "constructor"
    },
    {
      "payable": true,
      "stateMutability": "payable",
      "type": "fallback"
    },
    {
      "constant": false,
      "inputs": [],
      "name": "kill",
      "outputs": [],
      "payable": false,
      "stateMutability": "nonpayable",
      "type": "function"
    },
    {
      "constant": true,
      "inputs": [
        {
          "name": "player",
          "type": "address"
        }
      ],
      "name": "checkPlayerExists",
      "outputs": [
        {
          "name": "",
          "type": "bool"
        }
      ],
      "payable": false,
      "stateMutability": "view",
      "type": "function"
    },
    {
      "constant": false,
      "inputs": [
        {
          "name": "_teamSelected",
          "type": "uint8"
        }
      ],
      "name": "bet",
      "outputs": [],
      "payable": true,
      "stateMutability": "payable",
      "type": "function"
    },
    {
      "constant": false,
      "inputs": [
        {
          "name": "teamWinner",
          "type": "uint16"
        }
      ],
      "name": "distributePrizes",
      "outputs": [],
      "payable": false,
      "stateMutability": "nonpayable",
      "type": "function"
    },
    {
      "constant": true,
      "inputs": [],
      "name": "AmountOne",
      "outputs": [
        {
          "name": "",
          "type": "uint256"
        }
      ],
      "payable": false,
      "stateMutability": "view",
      "type": "function"
    },
    {
      "constant": true,
      "inputs": [],
      "name": "AmountTwo",
      "outputs": [
        {
          "name": "",
          "type": "uint256"
        }
      ],
      "payable": false,
      "stateMutability": "view",
      "type": "function"
    }
  ],
  "bytecode": "0x608060405234801561001057600080fd5b50336000806101000a81548173ffffffffffffffffffffffffffffffffffffffff021916908373ffffffffffffffffffffffffffffffffffffffff160217905550655af3107a4000600181905550610a9c8061006d6000396000f3006080604052600436106100ba576000357c0100000000000000000000000000000000000000000000000000000000900463ffffffff1680634081d916146100bc57806341c0e1b5146101175780634996d51d1461012e5780634b114691146101595780635bf6b19f146101bf57806365733592146101ea5780637904f688146102155780638afadeb5146102465780638da5cb5b14610271578063c38a8afd146102c8578063d0821b0e146102f3578063f71d96cb14610316575b005b3480156100c857600080fd5b506100fd600480360381019080803573ffffffffffffffffffffffffffffffffffffffff169060200190929190505050610383565b604051808215151515815260200191505060405180910390f35b34801561012357600080fd5b5061012c610426565b005b34801561013a57600080fd5b506101436104b7565b6040518082815260200191505060405180910390f35b34801561016557600080fd5b5061019a600480360381019080803573ffffffffffffffffffffffffffffffffffffffff1690602001909291905050506104c1565b604051808381526020018261ffff1661ffff1681526020019250505060405180910390f35b3480156101cb57600080fd5b506101d46104f3565b6040518082815260200191505060405180910390f35b3480156101f657600080fd5b506101ff6104f9565b6040518082815260200191505060405180910390f35b34801561022157600080fd5b50610244600480360381019080803561ffff169060200190929190505050610503565b005b34801561025257600080fd5b5061025b610823565b6040518082815260200191505060405180910390f35b34801561027d57600080fd5b50610286610829565b604051808273ffffffffffffffffffffffffffffffffffffffff1673ffffffffffffffffffffffffffffffffffffffff16815260200191505060405180910390f35b3480156102d457600080fd5b506102dd61084e565b6040518082815260200191505060405180910390f35b610314600480360381019080803560ff169060200190929190505050610854565b005b34801561032257600080fd5b50610341600480360381019080803590602001909291905050506109bc565b604051808273ffffffffffffffffffffffffffffffffffffffff1673ffffffffffffffffffffffffffffffffffffffff16815260200191505060405180910390f35b600080600090505b60048054905081101561041b578273ffffffffffffffffffffffffffffffffffffffff166004828154811015156103be57fe5b9060005260206000200160009054906101000a900473ffffffffffffffffffffffffffffffffffffffff1673ffffffffffffffffffffffffffffffffffffffff16141561040e5760019150610420565b808060010191505061038b565b600091505b50919050565b6000809054906101000a900473ffffffffffffffffffffffffffffffffffffffff1673ffffffffffffffffffffffffffffffffffffffff163373ffffffffffffffffffffffffffffffffffffffff1614156104b5576000809054906101000a900473ffffffffffffffffffffffffffffffffffffffff1673ffffffffffffffffffffffffffffffffffffffff16ff5b565b6000600254905090565b60056020528060005260406000206000915090508060000154908060010160009054906101000a900461ffff16905082565b60035481565b6000600354905090565b61050b6109fa565b600080600080600080600080600097506000965060009550600094505b60048054905085101561062e5760048581548110151561054457fe5b9060005260206000200160009054906101000a900473ffffffffffffffffffffffffffffffffffffffff1693508961ffff16600560008673ffffffffffffffffffffffffffffffffffffffff1673ffffffffffffffffffffffffffffffffffffffff16815260200190815260200160002060010160009054906101000a900461ffff1661ffff161415610621578389896103e8811015156105e157fe5b602002019073ffffffffffffffffffffffffffffffffffffffff16908173ffffffffffffffffffffffffffffffffffffffff168152505087806001019850505b8480600101955050610528565b60018a61ffff16141561064a5760035496506002549550610655565b600254965060035495505b600092505b8783101561079057600073ffffffffffffffffffffffffffffffffffffffff1689846103e88110151561068957fe5b602002015173ffffffffffffffffffffffffffffffffffffffff161415156106c25788836103e8811015156106ba57fe5b602002015191505b600560008373ffffffffffffffffffffffffffffffffffffffff1673ffffffffffffffffffffffffffffffffffffffff16815260200190815260200160002060000154905088836103e88110151561071657fe5b602002015173ffffffffffffffffffffffffffffffffffffffff166108fc612710886127108b0281151561074657fe5b0461271001840281151561075657fe5b049081150290604051600060405180830381858888f19350505050158015610782573d6000803e3d6000fd5b50828060010193505061065a565b600560008573ffffffffffffffffffffffffffffffffffffffff1673ffffffffffffffffffffffffffffffffffffffff1681526020019081526020016000206000808201600090556001820160006101000a81549061ffff0219169055505060006004816107fe9190610a1f565b5060009650600095506000600281905550600060038190555050505050505050505050565b60025481565b6000809054906101000a900473ffffffffffffffffffffffffffffffffffffffff1681565b60015481565b61085d33610383565b15151561086957600080fd5b600154341015151561087a57600080fd5b34600560003373ffffffffffffffffffffffffffffffffffffffff1673ffffffffffffffffffffffffffffffffffffffff168152602001908152602001600020600001819055508060ff16600560003373ffffffffffffffffffffffffffffffffffffffff1673ffffffffffffffffffffffffffffffffffffffff16815260200190815260200160002060010160006101000a81548161ffff021916908361ffff16021790555060043390806001815401808255809150509060018203906000526020600020016000909192909190916101000a81548173ffffffffffffffffffffffffffffffffffffffff021916908373ffffffffffffffffffffffffffffffffffffffff1602179055505060018160ff1614156109a857346002600082825401925050819055506109b9565b346003600082825401925050819055505b50565b6004818154811015156109cb57fe5b906000526020600020016000915054906101000a900473ffffffffffffffffffffffffffffffffffffffff1681565b617d00604051908101604052806103e890602082028038833980820191505090505090565b815481835581811115610a4657818360005260206000209182019101610a459190610a4b565b5b505050565b610a6d91905b80821115610a69576000816000905550600101610a51565b5090565b905600a165627a7a72305820098b6b3e88186ed2f22bb11cf9273eac717e79cfdbd5fc9ddb675ce43e3409950029",
  "source": "pragma solidity ^0.4.2;\n\n\ncontract Betting {\n   address public owner;\n   uint256 public minimumBet;\n   uint256 public totalBetsOne;\n   uint256 public totalBetsTwo;\n   address[] public players;\n   struct Player {\n      uint256 amountBet;\n      uint16 teamSelected;\n    }\n// The address of the player and => the user info\n   mapping(address => Player) public playerInfo;\n   function() public payable {}\n  function Betting() public {\n      owner = msg.sender;\n      minimumBet = 100000000000000;\n    }\nfunction kill() public {\n      if(msg.sender == owner) selfdestruct(owner);\n    }\nfunction checkPlayerExists(address player) public constant returns(bool){\n      for(uint256 i = 0; i < players.length; i++){\n         if(players[i] == player) return true;\n      }\n      return false;\n    }\n\n\n    function bet(uint8 _teamSelected) public payable {\n      //The first require is used to check if the player already exist\n      require(!checkPlayerExists(msg.sender));\n      //The second one is used to see if the value sended by the player is\n      //Higher than the minimum value\n      require(msg.value >= minimumBet);\n\n      //We set the player informations : amount of the bet and selected team\n      playerInfo[msg.sender].amountBet = msg.value;\n      playerInfo[msg.sender].teamSelected = _teamSelected;\n\n      //then we add the address of the player to the players array\n      players.push(msg.sender);\n\n      //at the end, we increment the stakes of the team selected with the player bet\n      if ( _teamSelected == 1){\n          totalBetsOne += msg.value;\n      }\n      else{\n          totalBetsTwo += msg.value;\n      }\n    }\n    // Generates a number between 1 and 10 that will be the winner\n    function distributePrizes(uint16 teamWinner) public {\n      address[1000] memory winners;\n      //We have to create a temporary in memory array with fixed size\n      //Let's choose 1000\n      uint256 count = 0; // This is the count for the array of winners\n      uint256 LoserBet = 0; //This will take the value of all losers bet\n      uint256 WinnerBet = 0; //This will take the value of all winners bet\n\n      //We loop through the player array to check who selected the winner team\n      for(uint256 i = 0; i < players.length; i++){\n         address playerAddress = players[i];\n\n         //If the player selected the winner team\n         //We add his address to the winners array\n         if(playerInfo[playerAddress].teamSelected == teamWinner){\n            winners[count] = playerAddress;\n            count++;\n         }\n      }\n\n      //We define which bet sum is the Loser one and which one is the winner\n      if ( teamWinner == 1){\n         LoserBet = totalBetsTwo;\n         WinnerBet = totalBetsOne;\n      }\n      else{\n          LoserBet = totalBetsOne;\n          WinnerBet = totalBetsTwo;\n      }\n\n\n      //We loop through the array of winners, to give ethers to the winners\n      for(uint256 j = 0; j < count; j++){\n          // Check that the address in this fixed array is not empty\n         if(winners[j] != address(0))\n            address add = winners[j];\n            uint256 bet = playerInfo[add].amountBet;\n            //Transfer the money to the user\n            winners[j].transfer(    (bet*(10000+(LoserBet*10000/WinnerBet)))/10000 );\n      }\n      delete playerInfo[playerAddress]; // Delete all the players\n      players.length = 0; // Delete all the players array\n      LoserBet = 0; //reinitialize the bets\n      WinnerBet = 0;\n      totalBetsOne = 0;\n      totalBetsTwo = 0;\n    }\n\n    function AmountOne() public view returns(uint256){\n       return totalBetsOne;\n    }\n\n    function AmountTwo() public view returns(uint256){\n       return totalBetsTwo;\n    }\n}\n",
  "sourcePath": "/Users/stephaneguichard/workspace-min/bet-eth/contracts/Betting.sol",
  "compiler": {
    "name": "solc",
    "version": "0.4.23+commit.124ca40d.Emscripten.clang"
  },
  "schemaVersion": "2.0.0",
  "updatedAt": "2018-08-14T10:28:46.419Z"
}